:020000040800F2
:10000000080A00200101000843200008711B0008B5
:1000100041200008C10300081D290008000000005D
:100020000000000000000000000000007123000834
:10003000E504000800000000F122000891230008F8
:100040001B0100081B0100081B0100081B01000820
:100050001B0100081B0100081B0100081B01000810
:100060001B0100081B0100081B0100081B01000800
:100070001B0100081B010008CD040008D90400087A
:100080001B0100081B0100081B0100081B010008E0
:100090001B0100081B0100081B0100081B010008D0
:1000A0001B0100081B0100081B0100081B010008C0
:1000B0001B0100081B0100081B0100081B010008B0
:1000C0001B0100081B0100081B0100081B010008A0
:1000D0001B010008112900081B0100081B01000872
:1000E0001B0100081B0100081B010008DFF80CD0F1
:1000F00000F054F900480047A1290008080A002030
:100100000648804706480047FEE7FEE7FEE7FEE7B1
:10011000FEE7FEE7FEE7FEE7FEE7FEE7F323000863
:10012000ED00000840EA01039B0703D009E008C97D
:10013000121F08C0042AFAD203E011F8013B00F8AC
:10014000013B521EF9D27047D2B201E000F8012BF8
:10015000491EFBD270470022F6E710B513460A4647
:1001600004461946FFF7F0FF204610BDF0B480EAC0
:100170000102D40F4200B2EB410F02D20246084600
:1001800011464A0042D0C30DDDB2C1F3C752AD1AC9
:10019000202D35DAC1F3160141F4000204B15242B8
:1001A000C5F1200602FA06F12A411044B3EBD05FF4
:1001B00023D0C4B1012DA0EBC35009DCF0BC4FF03B
:1001C000004202EAC352DBB200F5000000F0B8B80A
:1001D000400000F1807000EBC350A0F1807040EA55
:1001E000D170490009E0490841EAC071A0EBC35051
:1001F00000F50000400800EBC350F0BC00F097B8D9
:100200006142012202EB4101001BF6E7F0BC70479E
:1002100081F00041AAE780F00040A7E780EA0102F0
:1002200010B502F00043400022D04A001FD0010E5A
:1002300001EB1261C0F35600C2F3560240F4000015
:1002400042F40002A0FB022000047F39140400D015
:10025000401C50EA124001D44000491EC2B20C06B4
:1002600004EBD010401C4008802A02D003E000209C
:1002700010BD20F00100002900DA0020184310BD55
:1002800030B480EA010202F0004530F0004221F073
:10029000004013D090B1C30DD40DC2F31601C0F3CA
:1002A0001600E41A41F4000140F400027D3491424A
:1002B00001D3641C00E04900002C02DA30BC0020AD
:1002C00070474FF400000023914201D3891A034381
:1002D00040084FEA4101F7D151B1914202D14FF0AC
:1002E000004105E002D24FF0010101E06FF0010191
:1002F00003EBC450284430BC00F019B89623002208
:10030000114600F01DB820F00040C10DC0F31600EA
:1003100040F400007F2901DA00207047962903DCB1
:10032000C1F19601C840704796398840704700294E
:10033000A8BF7047401C490008BF20F0010070476B
:1003400010B4B0FA80FC00FA0CF050EA010404BFCB
:1003500010BC704749B1CCF1200421FA04F411FA21
:100360000CF118BF012121430843A3EB0C01CB1D65
:100370004FEA00614FEA102042BF002010BC7047D6
:1003800000EBC35010440029A4BF10BC7047401CB0
:10039000490008BF20F0010010BC7047064C074D13
:1003A00006E0E06840F0010394E807009847103445
:1003B000AC42F6D3FFF79EFEA83D0008C83D0008FA
:1003C000FEE7000070B53C4C00253C4E2070032831
:1003D0002AD0332828D0042829D0342827D006282A
:1003E00031D036282FD0052839D0352837D00228EB
:1003F00048D0322846D0072847D0372845D038285B
:100400004BD0082849D0092853D0392851D00A2880
:1004100042D102F065FBC82000F0AEF93046BDE8DD
:100420007040202100F0AABA02F0E0FB01E002F0E7
:10043000FDFA2021304600F0A1FA657001F060FE5F
:1004400000231F4A16E002F045FC2021304600F050
:1004500095FA657001F054FE00231A4A0AE002F092
:10046000A9FC2021304600F089FA657001F048FEB1
:10047000154A00230021084601F0E4FDBDE8704064
:1004800001F012BF01F056FF01E002F009FE202149
:10049000304600F073FA657070BD60780028FBD1BB
:1004A00002F044FD2021304600F068FA012060701F
:1004B00070BD02F0EFFCEAE702000020000C0140F2
:1004C000743D00086C39000864350008014800F0EC
:1004D0007BB800007C050020014800F075B80000E2
:1004E000C0050020704772B6FEE710B590F82110E5
:1004F0000022022905D00421816380F820200120F8
:1005000010BD01680B6823F00E030B6001680B68D7
:1005100023F001030B6090F84030C46B012101FA15
:1005200003F3636080F8211080F82020104610BD8E
:1005300010B590F821100024022903D00421816312
:1005400001243DE001680A6822F00E020A60016899
:100550000A6822F001020A601A4A0168914201D138
:10056000012121E0174A1432914201D110211BE0F0
:10057000144A2832914201D1891515E0114A3C32C2
:10058000914201D189140FE00E4A5032914202D1BA
:100590004FF4803108E00B4A6432914202D14FF4AB
:1005A000801101E04FF08071064A083A5160012144
:1005B00080F82110002180F82010416B01B188479C
:1005C000204610BD080002402DE9F05FC16B0C68A9
:1005D00001680B68D0F840C0042202FA0CF2494DC1
:1005E000DFF824A1494E4A4FDFF828B1DFF828E1AF
:1005F00022422CD05A072AD50A68920603D40A68E8
:1006000022F004020A600168A94201D1042219E023
:10061000514501D1402215E0B14202D14FF4806230
:1006200010E0B94202D14FF480420BE0594502D1AB
:100630004FF4802206E0714502D14FF4800201E0C0
:100640004FF080622F4908394A60C16A3BE04FF0A1
:10065000020808FA0CF818EA040F4FF000094FF0EE
:10066000010235D05FEA837832D50B689B0605D44A
:100670000B6823F00A030B6080F821200168A9426F
:1006800001D1022219E0514501D1202215E0B142E9
:1006900002D14FF4007210E0B94202D14FF400527F
:1006A0000BE0594502D14FF4003206E0714502D10A
:1006B0004FF4001201E04FF00072124908394A600D
:1006C00080F82090816A00291AD0BDE8F05F0847C1
:1006D000082505FA0CF5254212D01B0710D50B682A
:1006E00023F00E030B6090F84010C36B02FA01F187
:1006F0005960826380F8212080F82090016BE2E746
:10070000BDE8F09F080002401C000240300002409B
:1007100044000240580002406C00024030B528B34B
:1007200008C8134914221944B1FBF2F18900C163CE
:1007300010498163022141771A6843F6F0718A43B8
:10074000D0E900142143D0E902452C432143046938
:1007500021434469214384692143114319600021E5
:100760004163012242770177084630BD012030BD48
:10077000F8FFFDBF0000024070B5044600F00CF920
:100780000546601C02D004480078044400F004F9D7
:10079000401BA042FAD370BD040000202DE9F84FA1
:1007A000DFF8B8910024A9F1040B23460F2709F1C3
:1007B000040AABF1040EC9E00125A5402A40AA4273
:1007C0007DD1674ED1F804C0ACEB0608B44532D0F9
:1007D00014DCBCF1030F3AD009DCBCF1000F2AD0C5
:1007E000BCF1010F1CD0BCF1020F31D11DE0BCF1F6
:1007F000110F17D0BCF1120F2AD119E0B8F5881FDC
:1008000019D006DCB8F5803F15D0B8F5801F1FD190
:1008100011E0B8F5001F0ED0B8F5041F18D10AE09A
:10082000CB6815E0CB681B1D12E0CB6808330FE0E6
:10083000CB680C330CE08B682BB1012B4FF0080315
:1008400003D0456104E0042302E0056100E00023D9
:10085000FF2A01D8064601E000F104064FEA8405AC
:1008600001D9A5F12005D6F8008007FA05FC28EA91
:100870000C0803FA05F548EA0508C6F800804D683B
:10088000ED0062D5374DAE6946F00106AE61AD6947
:1008900024F0030605F001050095334D06EB050C29
:1008A000DCF80850A607360F07FA06F825EA08050F
:1008B000DFF8B880404503D14FF0000817E044E06E
:1008C000DFF8AC80404502D14FF001080FE0DFF8BF
:1008D000A480404502D14FF0020808E0DFF898807C
:1008E000404502D14FF0030801E04FF0040808FA38
:1008F00006F848EA0508CCF808804D68D9F8006089
:10090000ED024D4601D5164300E096432E604D683A
:10091000DAF80060AD02554601D5164300E0964373
:100920002E604D68DBF80060AD035D4601D51643CF
:1009300000E096432E604D68DEF80060ED037546DA
:1009400001D5164300E096432E60641C0D682A46CC
:10095000E5407FF431AFBDE8F88F000008040140A6
:10096000000011100010024000000140000801408A
:10097000000C01400010014000140140C26821EA4F
:1009800002030A4043EA0241016170470AB1016172
:1009900070470904FBE700000148806870470000C9
:1009A0000400002070B5040025D094F83D00002517
:1009B00020B984F83C50204600F04EF9242084F8F9
:1009C0003D002068016821F0010101602068016894
:1009D00041F4004101602068016821F40041016098
:1009E00000F098FA4D4A6168914201D84C4900E004
:1009F0004C49884201D2012070BD4B492368B0FBAD
:100A0000F1F15E6826F03F060E435E606368934234
:100A100006D94FF4967359434FF47A73B1FBF3F14F
:100A20002368491C1E6A26F03F063143196261683B
:100A3000914210D84900401EB0FBF1F2521CC2F3A3
:100A40000B02042A01D2042022E0B0FBF1F0401C8A
:100A5000C0F30B001CE0A268F2B301EBC10303EB8F
:100A60000116431EB3FBF6F35B1C43F480431B05E6
:100A700049D092B301EBC10202EB0111401EB0FB61
:100A8000F1F0401CC0F30B0040F4804040F4004003
:100A90002168CA694CF6FF739A431043C861D4E9D0
:100AA000071001432068026822F0C0021143016070
:100AB000D4E9030101432068826848F2FF339A4376
:100AC00011438160D4E9050108432168CA6822F016
:100AD000FF021043C86001E00EE016E020680168E4
:100AE00041F0010101602564202084F83D00256368
:100AF00084F83E50002070BD01EB4106431EB3FB5D
:100B0000F6F35B1CB3E70120C2E701EB4101401E95
:100B1000B0FBF1F0401CC0F30B00B7E7A08601006A
:100B200080841E0000093D0040420F002DE9F84F6F
:100B30001F4690468A460446DDF82890FFF72CFFB2
:100B4000054694F83D0020287FD119230122404911
:100B50002046009501F09EF8002876D194F83C00DC
:100B6000012872D0012084F83C0020680168C90780
:100B700003D1016841F0010101602068016821F49E
:100B800000610160212084F83D00102084F83E00BF
:100B900000262664C4F824806785608D20852D4852
:100BA000E0622B464A465146204600F0F9FF90B9D4
:100BB000206841698069009036E02A46494620460F
:100BC00001F00EF950B1206C042804D120680168AE
:100BD00041F4007101600120BDE8F88F606A21686E
:100BE00000780861606A401C6062618D491E618501
:100BF000218D491E89B2218522685369DB435B0739
:100C00000BD451B100781061606A401C6062608D45
:100C1000401E6085208D401E20852A46494620467C
:100C200001F00CF80028CED1208D0028C5D154F851
:100C30003D0B016841F400710160202004F81E0999
:100C4000E67766770020C7E7FFE70220C4E70000E9
:100C5000020010000000FFFF10B586B000210091D7
:100C60000191029103910068104988421BD1104CF8
:100C7000A06940F00800A061A069694600F0080082
:100C800004904FF4406000901220019003200390E4
:100C90000848FFF783FDE06940F48000E061E06907
:100CA00000F48000049006B010BD00000058004021
:100CB00000100240000C0140024881680278114493
:100CC0008160704704000020074810B5016841F0BA
:100CD00010010160032000F075F80F2000F006F805
:100CE00000F024F8002010BD0020024070B50D4D2A
:100CF00004464FF47A712878B1FBF0F00A4909688C
:100D0000B1FBF0F000F0DCFA48B9102C07D2002259
:100D10002146501E00F036F800206C6070BD0120A6
:100D200070BD000004000020100000200C4808B531
:100D3000816941F001018161816901F00101009146
:100D4000C16941F08051C161C06900F080500090DC
:100D50000448416821F0E06141F00071416008BD44
:100D60000010024000000140002809DB00F01F02D3
:100D7000012191404009800000F1E020C0F80011FD
:100D800070470000F0B40E4B1B680C46C3F30223FF
:100D9000C3F10705042D00D90425191D072901D227
:100DA000002300E0DB1E012606FA05F1491E214062
:100DB00099409E40761E16403143F0BC01F0AFBD15
:100DC0000CED00E0064900F0070208684FF6FF034B
:100DD000184040EA0220034A1043086070470000B0
:100DE0000CED00E00000FA052DE9F0470F46050084
:100DF00061D0434E306800F00700B84209D2306835
:100E000020F0070038433060306800F00700B84237
:100E100051D128683B4C810712D5400703D5606843
:100E200040F4E06060602878000703D5606840F413
:100E3000605060606068A96820F0F000084360605E
:100E40002878C00728D06868012810D021680228B7
:100E500010D0890700292EDA616821F003010143CF
:100E60006160FFF799FD804641F288390DE0216805
:100E70008903EFE78901EDE7FFF78EFDA0EB08019D
:100E8000494502D90320BDE8F0876068696800F031
:100E90000C00B0EB810FEFD1306800F00700B842D2
:100EA0000BD9306820F0070038433060306800F01C
:100EB0000700B84201D00120E5E72878400705D5B2
:100EC0006068E96820F4E060084360602878000703
:100ED00006D56068296920F4605040EAC10060606E
:100EE00000F038F86168084AC1F30311515CC8404A
:100EF0000649086006480068FFF7F8FE0020C2E7D0
:100F000000200240001002408E3D0008100000202A
:100F1000080000200448054900684968044AC1F3F4
:100F20000221515CC84070471000002000100240B0
:100F30009E3D00080448054900684968044AC1F319
:100F4000C221515CC84070471000002000100240D0
:100F50009E3D00080E4A51680E4801F00C03042B18
:100F600011D0082B0FD10C48C1F38343C903C05CD7
:100F70000AD55168084AC1F34041921E515C054AA6
:100F80005043B0FBF1F070470449484370470000FC
:100F90000010024000127A007E3D000800093D006A
:100FA0002DE9F84F040070D02078C04DC00749D01B
:100FB0006868C0F38100012807D06868C0F3810029
:100FC000022809D16868C00306D52868800339D58E
:100FD00060680028E7D035E06068B0F5803F0BD04E
:100FE00010B1B0F5A02F11D0286820F4803028600F
:100FF000286820F4802002E0286840F480302860CF
:10100000606890B1FFF7C8FC06460AE0286840F423
:1010100080202860F0E700BFFFF7BEFC801B64283B
:1010200073D828688003F7D50CE0FFF7B5FC0646B7
:1010300005E000BFFFF7B0FC801B6428F0D82868EB
:101040008003F7D420789A4E80074FF001094FF0C3
:10105000000839D5686810F00C0F07D06868C0F335
:101060008100022809D16868C00306D42868800777
:1010700014D52069012808D110E02069B0B1C6F864
:101080000090FFF789FC074605E00AE1FFF784FCC2
:10109000C01B0228C4D828688007F7D52868616972
:1010A00020F0F80040EAC10028600DE0C6F800809A
:1010B000FFF772FC074604E0FFF76EFCC01B022836
:1010C00023D828688007F7D4207800072CD57948E2
:1010D000A169D9B1C0F80090FFF75EFC074604E0B3
:1010E000FFF75AFCC01B02280FD8686A8007F7D5A3
:1010F00071484FF4FA510068B0FBF1F0009000BF66
:101100000098411E0091FAD20EE080E0C0F8008005
:10111000FFF742FC074604E0FFF73EFCC01B022835
:1011200075D8686A8007F7D42078400760D5E869E9
:101130000027C00008D4E86940F08050E861E86901
:10114000012700F0805000905C480168C90513D465
:101150000168834641F480710160FFF71DFC8246FF
:1011600006E000BFFFF718FCA0EB0A0064284ED889
:10117000DBF80000C005F5D5E06801280AD008B109
:10118000052813D0286A20F001002862286A20F080
:10119000040002E0286A40F001002862E06841F2A1
:1011A000883B98B1FFF7F8FB82460BE0286A40F0D5
:1011B00004002862EEE700BFFFF7EEFBA0EB0A0198
:1011C00059455AD8286A8007F6D50CE0FFF7E4FBAA
:1011D000824605E0FFF7E0FBA0EB0A0159454CD839
:1011E000286A8007F6D41FB1E86920F08050E861D2
:1011F000E06988B36968C1F38101022944D00228FB
:10120000C6F8608004D0FFF7C7FB044638E034E03E
:10121000FFF7C2FB074604E0FFF7BEFBC01B022836
:101220002BD828688001F7D4206AB0F5803F05D11B
:101230006868A16820F4003008436860D4E90801B8
:101240000843696821F4741108436860C6F8609027
:10125000FFF7A2FB044606E025E000BFFFF79CFB7A
:10126000001B022809D828688001F7D51BE000BFC1
:10127000FFF792FB001B022802D90320BDE8F88F7C
:1012800028688001F4D40EE00128F7D06868226A4B
:1012900000F48031914204D1616A00F470108842F8
:1012A00001D00120EAE70020E8E70000001002403A
:1012B00000004242800442421000002000700040C2
:1012C00010B5401EB0F1807F01D3012010BD4FF05A
:1012D000E02460610F21601701F021FB0020A06174
:1012E00007202061002010BD70B590F83C20012A35
:1012F00026D0012480F83C40022280F83D2003687B
:101300005A689D6822F070060A6832435A600D4B95
:1013100002689A4208D0B2F1804F05D00A4B9A4237
:1013200002D00A4B9A4204D1496825F08003194340
:10133000916080F83D40002180F83C10084670BD67
:10134000022070BD002C0140000400400008004055
:1013500010B5040003D094F83D0010B107E001205F
:1013600010BD002084F83C00204600F01FF8022049
:1013700084F83D00211D206801F03CF8012084F82C
:10138000460084F83E0084F83F0084F8400084F86A
:10139000410084F8420084F8430084F8440084F853
:1013A000450084F83D00002010BD000008B500682D
:1013B000B0F1804F08D10548C16941F00101C16118
:1013C000C06900F00100009008BD0000001002405C
:1013D00070B5044690F83C000025012817D001267E
:1013E00084F83C60022084F83D002068826822F086
:1013F000770222F47F4282600868502838D00DDCE2
:1014000020284FD005DC90B3102811D14AE00220EB
:1014100070BD302846D040280AD13BE060282FD04C
:1014200070280DD0B0F5805F03D0B0F5005F12D00A
:10143000012584F83D60002084F83C00284670BDFA
:10144000CB68D1E90121206801F01DF8206881688E
:1014500041F0770109E0CB68D1E90121206801F072
:1014600012F82068816841F480418160E1E719E069
:10147000CA684968206801F001F95021206806E037
:10148000CA684968206801F00AF96021206801F003
:1014900004F8CEE7CA684968206801F0EFF84021F7
:1014A0002068F4E7226801461046F0E700B585B0F1
:1014B000002100910191029103910068B0F1804FE9
:1014C00011D10A48816941F004018161806969464E
:1014D00000F0040004900F2000900220019003907F
:1014E0000348FFF75BF905B000BD000000100240A3
:1014F0000008014070B5044690F83C0000260D46F7
:1015000001280FD0012084F83C006AB1042A1DD0C4
:10151000082A2FD00C2A3FD00126002084F83C0056
:10152000304670BD022070BD206800F0BFFF20680B
:10153000816941F0080181612068816921F004011D
:101540008161206881692A69114311E0206800F0F7
:10155000D5FF2068816941F400618161206881695B
:1015600021F480618161206881692A6941EA022150
:101570008161D2E7206800F0EDFF2068C16941F089
:101580000801C1612068C16921F00401C1612068BE
:10159000C1692A69114311E0206801F007F8206849
:1015A000C16941F40061C1612068C16921F48061B1
:1015B000C1612068C1692A6941EA0221C161ACE7C1
:1015C00010B5040003D094F83D0010B107E00120ED
:1015D00010BD002084F83C00204600F01EF80220D8
:1015E00084F83D00211D206800F004FF012084F8EC
:1015F000460084F83E0084F83F0084F8400084F8F8
:10160000410084F8420084F8430084F8440084F8E0
:10161000450084F83D00002010BD704710B5044619
:10162000022249B104290ED0082913D094F84100B0
:10163000012816D0012010BD94F83E000128F9D1F0
:1016400084F83E200FE094F83F000128F2D184F89E
:101650003F2008E094F840000128EBD184F84020B6
:1016600001E084F841200122206800F0FFFE0F49CC
:101670002068884203D1426C42F4004242642068F0
:10168000884208D0B0F1804F05D00949884202D085
:101690000849884204D1816801F00701062903D076
:1016A000016841F001010160002010BD002C0140E3
:1016B000000400400008004070B5044690F83C006B
:1016C000012812D0012584F83C50022084F83D0006
:1016D000204600F08DFF01004FF0000007D084F895
:1016E0003D5084F83C00012070BD022070BD21688F
:1016F000CA6822F04002CA602168CA6822F48042A7
:10170000CA6084F83D5084F83C00002070BD7047EA
:1017100070470000F8B5016804460868CA684B695C
:1017200010F00F0F4FF0000559D003F0010602F43E
:101730009077374365D0C10705D0D10503D5616CDB
:1017400041F001016164410705D5D90703D0616CFF
:1017500041F002016164810705D5D90703D0616CAE
:1017600041F004016164010707D502F02001314313
:1017700003D0616C41F008016164616C00293AD0CA
:10178000800604D5900602D5204600F0C9FF2068E7
:101790004069616CC0F38010090700D460B3204633
:1017A00000F097FF20684069400621D5206814307A
:1017B00050E8001F21F0400140E80012002AF5D156
:1017C000E06BA8B16D494163E06BFEF7B1FE002804
:1017D00011D0E06B416B01B0BDE8F04008478306D3
:1017E0000FD593060DD52046BDE8F84000F098BF10
:1017F0002046FFF78DFFF8BD2046FFF789FF65649F
:10180000F8BD266B2023012E7CD1C6067AD5D606DC
:1018100078D508684868009048694FF0020640068D
:1018200040D5E16B086840680004000CE8D0A28D48
:101830008242E5D9E085886920282DD020680C30C7
:1018400050E8001F21F4807140E80012002AF5D111
:101850002068143050E8001F21F0010140E8001218
:10186000002AF5D12068143050E8001F21F0400113
:1018700040E80012002AF5D184F842302563206840
:101880000C3050E8001F21F0100140E80012002A3F
:10189000F5D1E06BFEF729FE6663A08DE18D401A5D
:1018A00081B22AE0A08DE18D401A81B2E08D00283E
:1018B000A6D00029A4D022680C3252E8000F20F4F0
:1018C000907042E80007002FF5D12068143050E8EE
:1018D000002F22F0010240E80027002FF5D184F804
:1018E0004230256320680C3050E8002F22F01002AF
:1018F00040E80023002BF5D166632046FFF707FF81
:10190000F8BDFFE705062BD5150629D594F841004B
:101910002128F5D1A068B0F5805F01D12069B0B170
:10192000206A411C2162216800784860E08C401EDA
:101930000004000CE084E3D12068C16821F080013C
:10194000C1602068C16841F04001C160D8E7206AE9
:101950000088C0F308004860206A801C2062E5E728
:101960004006CDD55006CBD5CA68204622F04002AD
:10197000CA6084F8413000F0FAF8C1E7C3260008D5
:1019800070B5040004D094F84100002510B106E0C1
:10199000012070BD84F84050204600F023F8242038
:1019A00084F841002068C16821F40051C1602046DC
:1019B00000F018FF2068016921F49041016120685E
:1019C000416921F02A0141612068C16841F4005158
:1019D000C1606564202084F8410084F8420065639A
:1019E000002070BDF0B585B0002406460094019437
:1019F0000294039400682C49884253D12B48816992
:101A000041F480418161816901F4804104918169DF
:101A100041F0040181618069254D00F004000490CB
:101A20004FF400700090022001900320039069465B
:101A30002846FEF7B3FE2815CDE90004694628467E
:101A40000294FEF7ABFE1C4D1A48802701C51020FA
:101A500091C5194845F810496C61AC61EC61FEF71D
:101A60005DFE08B1FEF73FFDB5636E62124D114891
:101A700044351430C5E90004C5E902472C616C61A6
:101A8000AC612846EC61FEF749FE08B1FEF72BFD7C
:101A9000F5630022114625206E62FFF773F92520B9
:101AA000FFF762F905B0F0BD0038014000100240B8
:101AB00000080140440002407C0500202DE9F84F59
:101AC000044690F842009A4616460D46202802D059
:101AD0000220BDE8F88FB5B1AEB1002060642221CC
:101AE00084F842102063FEF757FFA6858146E685FD
:101AF000A0684FF480582027404501D1206920B1CB
:101B00002E46002529E00120E3E7002625E04B468C
:101B1000002220212046CDF800A000F0BFFE18B121
:101B200084F842700320D4E726B1A06840451AD05B
:101B300038B108E020684068C0F3080025F8020BBF
:101B400008E0206978B12068406800F07F0000BF9D
:101B500006F8010BE08D401EE085E08D0028D6D10F
:101B600084F84270B5E720684068F1E77047704735
:101B7000FEE701684A69D24352050FD46FF48062D0
:101B80004A61002140F8301F2022427381730269AC
:101B900042F0040202610173012070470020704787
:101BA000F8B50446C06A1E460D461746082807D0F9
:101BB000012805D010F5803F02D0206B122804D1F7
:101BC0002068016841F480710160134600224FF0E3
:101BD00001112046009600F05DF840B120680068D1
:101BE000C00502D54FF4007020640320F8BD2069C1
:101BF000B0F5804F0ED00620216800EAD51040F0E5
:101C0000F000086133463A460B49204600F08AF856
:101C100078B902E005F0FE0000E0E8B22168086152
:101C2000054933463A46891F204600F07BF80028D4
:101C3000DCD00120F8BD00000800010070B5164698
:101C40000D4604461EE02046FFF793FF08B1012031
:101C500070BD681C16D0FEF79FFE801BA84200D8FE
:101C600085B920684069C04340070BD5002044F87F
:101C7000300F20216173A073216941F0200121619F
:101C80002073E4E720684069C0434007DBD40020AC
:101C900070BD00002DE9F047984617460D460446F2
:101CA000C1F30746DDF820902AE000BFB8F1FF3FFE
:101CB00026D0FEF771FEA0EB0901414502D8B8F12C
:101CC000000F1DD12068012E16D0806925EA000082
:101CD0000004000C12D00020B84211D1002044F8BA
:101CE000300F20216173A073216941F0200121612F
:101CF00020730120BDE8F0874069E7E70120EBE7AA
:101D00002068012E0AD0806925EA00000004000C3A
:101D100006D00020B842C9D00020EBE74069F3E7C5
:101D20000120F7E72DE9F047984616460D46044690
:101D30004FF000094FF0200AC1F3074723E0206865
:101D40004069C043400515D42068016841F4007122
:101D5000016021686FF480604861C4F8309084F8B5
:101D60003DA084F83E90216C41F00401216484F888
:101D70003C9021E0701C06D0FEF70EFEA0EB0800A0
:101D8000B04203D816B1012F1FD021E02068012FE7
:101D900015D0806925EA00000004000C18D000BFAF
:101DA00044F8309F84F80DA084F80E90216941F02A
:101DB0002001216184F80C900120BDE8F087406982
:101DC00025EA00000004000CEAD12068406901E027
:101DD0002068806925EA00000004000CAFD1ECE720
:101DE00070B516460D4604461EE02046FFF7C1FEBC
:101DF00008B1012070BD681C16D0FEF7CDFD801B18
:101E0000A84200D885B920684069C04300060BD5B8
:101E1000002044F8300F20216173A073216941F044
:101E2000200121612073E4E720684069C043000677
:101E3000DBD4002070BD00000D4808B5416941F0B9
:101E4000010141614069002200F00100009011464B
:101E50000E20FEF797FF0E20FEF786FF00221146A8
:101E60000F20FEF78FFFBDE808400F20FEF77CBF74
:101E70000010024030B585B0002418480094019449
:101E800002940394816941F020018161816901F02C
:101E900020010491816941F004018161816901F0AF
:101EA00004010491816941F00801816180690C4D50
:101EB00000F008000490002220212846FEF766FD6D
:101EC000202000900120CDE9010402200390694602
:101ED0002846FEF763FC05B030BD0000001002404C
:101EE000000C01400D4810B50B4901600C494160E0
:101EF00000214FF480428160C0E903124161816199
:101F0000C1610162FEF74EFD002803D0BDE810401C
:101F1000FEF7E9BA10BD0000005800409804002008
:101F2000A086010010B592B000240C940D940E947C
:101F3000142107A80F94FEF70EF910941C2168468F
:101F40001194FEF708F92F484FF0804101604721B6
:101F5000C0E9011444F61F61C0E903148461FFF76E
:101F6000F7F908B1FEF7BFFA4FF480500C900CA9B6
:101F70002448FFF72DFA08B1FEF7B5FA2148FFF71C
:101F80001FFB08B1FEF7AFFA079407A91D48089494
:101F9000FFF792FB08B1FEF7A6FA109410A91948B2
:101FA0001194FFF7A1F908B1FEF79DFA60200090A7
:101FB0003220CDE901040022694612480494FFF75B
:101FC00099FA08B1FEF78FFA042269460D48FFF727
:101FD00091FA08B1FEF787FA082269460948FFF727
:101FE00089FA08B1FEF77FFA0C2269460548FFF727
:101FF00081FA08B1FEF777FA0248FFF757FA12B0F4
:1020000010BD0000EC0400200C4810B50A49016026
:102010004FF4E1314160002181600C22C160C0E9D0
:1020200004128161C161FFF7ABFC002803D0BDE859
:102030001040FEF758BA10BD0038014034050020AA
:10204000FEE7FEE71CB55478CDE9004313785268EB
:1020500000F0C2F81CBD10B5AE2000F059F8002009
:1020600000F056F8102000F053F8402000F050F82F
:10207000812000F04DF8CF2000F04AF8A12000F0B8
:1020800047F8C82000F044F8A62000F041F8A82046
:1020900000F03EF83F2000F03BF8D32000F038F885
:1020A000002000F035F8D52000F032F8802000F054
:1020B0002FF8D92000F02CF8F12000F029F8DA20D0
:1020C00000F026F8122000F023F8DB2000F020F8C2
:1020D000302000F01DF8202000F01AF8022000F057
:1020E00017F88D2000F014F8142000F011F800F01B
:1020F00007F800F0D9F8BDE81040AF2000F008B8AC
:102100004FF480610148FEF726B8000095000020DA
:1021100008B5002100918DF800108DF80100022112
:10212000684600F027F908BD2DE9FC4180460720EC
:10213000CDE9000301F00704CD08164602FA04F0C9
:102140001F46C2B223464146284600F089F8002CBB
:102150000CD0601EC0B2CDE90007C4F1080026FA19
:1021600000F2681C0023414600F07AF8BDE8FC81CB
:102170002DE9FC4301F007061446CD089846814638
:1021800001F0070106EB080204FA01F0099F082A92
:1021900016D90721CDE90017C2B233464946284671
:1021A00000F05EF808EB06000938C0B2CDE9000780
:1021B000C6F1080024FA00F2681C0023494607E033
:1021C000521ED1B2CDE90017C2B233464946284665
:1021D00000F046F8BDE8FC832DE9FF4F82B01D46B4
:1021E0000F989346C70800F0070088460026019024
:1021F00018E0029800240BEB060A00EB06090DE03C
:1022000004FB05F0109B10F80A2008EBC400C1B2D3
:1022100009F0FF00FFF788FF641CE4B2BC42EFD373
:10222000761CF6B2AE42E4D30198002815D005FB27
:1022300007F6002408EBC7070DE01098009031194D
:1022400002981BF801202044F9B2C0B2019BFFF7AD
:102250008FFF641CE4B2AC42EFD306B0BDE8F08F50
:10226000F0B50828DDE9056419D2802917D20CB130
:10227000D243D2B2FF25761C05FA06F6C3F1080355
:10228000084F46EA0204DD4007EBC017044B785CB8
:10229000B2432C43AA4320401A7010437854F0BD37
:1022A000000000209500002070B5104D4020002453
:1022B000287005F1810600BF04F1B000C0B2FFF73D
:1022C00027FF0220FFF724FF1020FFF721FF06EB76
:1022D000C4118022681CFDF725FF8121034800F00E
:1022E00049F8641CE4B2082CE6D370BD1400002049
:1022F0007047000010B50F2000F030FB0C4C216837
:102300004863A02000F02AFB2168C8636420FEF720
:1023100033FAA72000F022FB21688863142000F024
:102320001DFB21680864BDE810406420FEF724BA54
:10233000EC04002010B55A2000F010FB0B4C216873
:1023400048635A2000F00AFB216888635A2000F095
:1023500005FB2168C8635A2000F000FB216808646F
:10236000BDE810406420FEF707BA0000EC0400202E
:102370007047000008B54FF0FF3200920B4602464E
:1023800078210248FEF7D2FB08BD00009804002027
:10239000FEF792BC30B58FB028216846FDF7DBFE12
:1023A00014210AA8FDF7D7FE01210804CDE9001089
:1023B0000024029402250491CDE907504FF4E01067
:1023C00009906846FEF7ECFD08B172B6FEE70F20F3
:1023D000CDE90A054FF48060CDE90C4002210AA83E
:1023E0000E94FEF701FD002801D072B6FEE70FB093
:1023F00030BD7047F0B50268194B1A4C1A4D4FF0BA
:102400008047984205D0B84203D0A04201D0A842EC
:1024100003D122F070064A683243984205D0B84290
:1024200003D0A04201D0A84203D122F44074CA686C
:1024300022434C6922F08002224302608A68C26211
:102440000A688262984201D10969016301214161F0
:102450000169C90703D0016921F001010161F0BDE3
:10246000002C0140000400400008004010B501F0BD
:102470001F030121046A99408C430462016A9A4057
:102480001143016210BD10B5846842EA032224F4AE
:102490007F440A432243826010BD826822F07002AA
:1024A0000A4342F0070181607047000030B5036ABB
:1024B000026A22F0010202624268846924F0730514
:1024C0000C682C4323F002058B682B430A4DA8426D
:1024D0000BD123F00805CB6822F440722B434D69E1
:1024E00023F0040315438A692A43426084614968E2
:1024F0004163036230BD0000002C014030B5026A28
:10250000036A23F010030362436884690D6824F4AE
:10251000E64444EA05248D6822F0200242EA0512CE
:102520000B4DA8420ED1CD6822F0800242EA05127E
:102530004D6923F4406343EA85038D6922F040022C
:1025400043EA85034360846149688163026230BD68
:10255000002C014030B5036A026A22F480720262E4
:102560004268C46923F4007324F073050C682C439B
:102570008D6843EA05230C4DA8420ED1CD6823F4A3
:10258000006343EA05234D6922F4405242EA0512F2
:102590008D6923F4806342EA05124260C461496890
:1025A000C163036230BD0000002C014030B5046AF5
:1025B000026A22F4805202624268C3690D6823F401
:1025C000E64343EA05238D6824F4005444EA0534C5
:1025D000064DA84204D14D6922F4804242EA851298
:1025E0004260C36149680164046230BD002C01404F
:1025F00070B5036800249A6822F070054A682A437F
:1026000022F007050A682A439A604A6812F00F0F01
:1026100031D11211082A2ED2DFE802F02E2E2E2EF2
:102620000B2127040B69D1E902210068FFF72BFF7A
:1026300022E00A68052A10D00268136A156A25F09C
:102640000105156202689569096925F0F00545EAFA
:1026500001119161006803620EE0012070BD0A69FA
:102660008968006800F00AF806E00A69896800686D
:1026700000F015F800E00124204670BD10B5036A93
:10268000046A24F001040462846924F0F00444EA3A
:10269000021423F00A020A438461026210BD10B5DD
:1026A000036A046A24F010040462846923F0A0031E
:1026B00024F4704444EA023243EA01118261016267
:1026C00010BD10B5406A0021C185C184FFF720F814
:1026D00010BD01680C3151E8002F22F4907241E8DE
:1026E0000023002BF5D10168143151E8002F22F0AE
:1026F000010241E80023002BF5D1016B012909D12A
:1027000001680C3151E8002F22F0100241E800234B
:10271000002BF5D1202180F8421000210163704781
:1027200008B590F84210222901D0022008BD826825
:102730004FF480539A4201D1016921B1816A9A42D2
:102740001BD04AB10AE00268816A5268C2F30802EB
:102750000A80816A891C08E0026972B102685268C5
:1027600002F07F020A70816A491C8162C18D491E94
:102770000904090CC18503D01BE002685268F1E727
:102780000168CA6822F02002CA600168CA6822F49F
:102790008072CA6001684A6922F001024A61202100
:1027A00080F8421000214163026B012A03D0FFF739
:1027B000DDF9002008BD016301680C3151E8002FEC
:1027C00022F0100241E80023002BF5D101680A68CD
:1027D000D20602D50A6849680091818DFEF797FFFD
:1027E000E7E7000070B5044600680169E26821F47B
:1027F0004051114301612169A068084361690843A0
:102800002168CA6841F20C639A430243CA60206897
:102810004169A26921F44071114341611E49206858
:10282000884202D1FEF786FB01E0FEF773FB00EB66
:10283000C00101EB0012606864218000B2FBF0F37C
:10284000B3FBF1F36FF018067343B2FBF0F5B2FB84
:10285000F0F605EB8305322303EB0515B5FBF1F527
:10286000B6FBF1F605F0F00505EB0615B2FBF0F648
:10287000B2FBF0F0B0FBF1F06FF01802504306EB42
:10288000800003EB0010B0FBF1F0216800F00F00B6
:102890002844886070BD0000003801402DE9F843ED
:1028A000984617460D460446089E24E0701C22D028
:1028B000FEF772F8A0EB0800B0421AD8CEB120683B
:1028C000C168490717D5802D15D0402D13D0016858
:1028D000C94309070FD401680025406800902046CD
:1028E000FFF7F7FE0820606484F840500120BDE83F
:1028F000F8830320FBE72068006835EA000004D075
:102900000020B842D2D00020F1E70120F9E7000012
:102910000148FEF7FFBE000034050020FEE709076E
:10292000090E002804DB00F1E02080F80014704755
:1029300000F00F0000F1E02080F8141D704702E065
:1029400008C8121F08C1002AFAD17047704700203A
:1029500001E001C1121F002AFBD1704770B5054686
:102960004FF08040C06AFDF7C9FC04462846FDF7D9
:10297000C5FC0849FDF752FC0749FDF781FC0749F2
:10298000FDF7F4FB2146FDF749FCFDF7BCFC80B2E6
:1029900070BD0000CDCCCC3D00003443CDCCCC3C50
:1029A000FEF792F9FFF7F6FCFFF764FAFFF744FA37
:1029B000FFF7B8FAFFF728FBFFF794FA0021174852
:1029C000FEF72CFE04211548FEF728FE08211348C7
:1029D000FEF724FE0C211148FEF720FEFFF78AFCCB
:1029E000FFF7A8FC1420FDF7C7FEFFF734FBFFF745
:1029F00087FB00230A4A19461846FFF723FBFFF717
:102A000053FC084D4FF0FF34234601220549064888
:102A1000FFF754F82878FDF7D5FCF5E7EC04002023
:102A2000743D0008020000203405002070B52B4CD6
:102A300000254FF4C8762D20FFF790FF21684863EA
:102A40008720FFF78BFF216888633046FDF794FEEF
:102A50002D20FFF783FF2168C8638720FFF77EFFE3
:102A6000216808643046FDF787FE5A20FFF776FF9D
:102A7000216848635A20FFF771FF21688863304658
:102A8000FDF77AFE5A20FFF769FF2168C8635A20D4
:102A9000FFF764FF216808643046FDF76DFE87206C
:102AA000FFF75CFF2168C8632D20FFF757FF2168FF
:102AB00008643046FDF760FE8720FFF74FFF21686E
:102AC00048632D20FFF74AFF216888633046FDF7F1
:102AD00053FE6D1C052DAEDB70BD0000EC04002024
:102AE0002DE9F0415A20FFF739FF3F4C2168486338
:102AF0005A20FFF733FF216888635A20FFF72EFF23
:102B00002168C8635A20FFF729FF21680864A020C4
:102B1000FFF724FF4FF08046716B88422DD9A0202B
:102B2000FFF71CFFB16B884227D9002505F15A0732
:102B3000F8B2FFF713FF21684863F8B2FFF70EFF02
:102B4000216888630420FDF717FE6D1CEDB24B2D44
:102B5000ECD30025C5F1A507F8B2FFF7FFFE216809
:102B60004863F8B2FFF7FAFE216888630420FDF796
:102B700003FE6D1CEDB24B2DECD31420FFF7EEFEDF
:102B8000F16B88422DD21420FFF7E8FE316C8842A9
:102B900027D20025C5F15A06F0B2FFF7DFFE216803
:102BA000C863F0B2FFF7DAFE216808640420FDF77D
:102BB000E3FD6D1CEDB24B2DECD3002505F10F06A6
:102BC000F0B2FFF7CBFE2168C863F0B2FFF7C6FE94
:102BD000216808640420FDF7CFFD6D1CEDB24B2D7C
:102BE000ECD3BDE8F0810000EC04002070B5384C57
:102BF00000254FF4C8768720FFF7B0FE21684863B0
:102C00002D20FFF7ABFE216888633046FDF7B4FD49
:102C10008720FFF7A3FE2168C8632D20FFF79EFEE3
:102C2000216808643046FDF7A7FD5A20FFF796FE9D
:102C3000216848635A20FFF791FE216808643046F6
:102C4000FDF79AFD5A20FFF789FE216888635A2014
:102C5000FFF784FE2168C8633046FDF78DFD2D2007
:102C6000FFF77CFE2168C8638720FFF777FE2168A5
:102C700008643046FDF780FD2D20FFF76FFE2168C8
:102C800048638720FFF76AFE216888633046FDF7B6
:102C900073FD5A20FFF762FE2168C8635A20FFF7D0
:102CA0005DFE216808643046FDF766FD5A20FFF797
:102CB00055FE216848635A20FFF750FE216888635B
:102CC0003046FDF759FD6D1C052D94DB70BD0000ED
:102CD000EC04002070B58720FFF740FE344C2168DB
:102CE00088638720FFF73AFE2168C8634FF4C875F0
:102CF0002846FDF741FD2D20FFF730FE216848638F
:102D00002D20FFF72BFE216808642846FDF734FDCF
:102D10005A20FFF723FE216888635A20FFF71EFE22
:102D20002168C8632846FDF727FD5A20FFF716FEE5
:102D3000216848635A20FFF711FE2168086428467D
:102D4000FDF71AFD8720FFF709FE216888638720B9
:102D5000FFF704FE2168C8632846FDF70DFD2D200E
:102D6000FFF7FCFD216848632D20FFF7F7FD216880
:102D700008642846FDF700FD5A20FFF7EFFD2168A3
:102D800088635A20FFF7EAFD2168C8632846FDF7EB
:102D9000F3FC5A20FFF7E2FD216848635A20FFF751
:102DA000DDFD216808642846BDE87040FDF7E4BCFD
:102DB000EC04002070B52D20FFF7D0FD344C2168C5
:102DC00048632D20FFF7CAFD216808644FF4C875D9
:102DD0002846FDF7D1FC8720FFF7C0FD21688863F6
:102DE0008720FFF7BBFD2168C8632846FDF7C4FCB8
:102DF0005A20FFF7B3FD216848635A20FFF7AEFD64
:102E0000216808642846FDF7B7FC5A20FFF7A6FDA5
:102E1000216888635A20FFF7A1FD2168C86328460E
:102E2000FDF7AAFC2D20FFF799FD216848632D20AE
:102E3000FFF794FD216808642846FDF79DFC872074
:102E4000FFF78CFD216888638720FFF787FD2168E5
:102E5000C8632846FDF790FC5A20FFF77FFD2168E4
:102E600048635A20FFF77AFD216808642846FDF779
:102E700083FC5A20FFF772FD216888635A20FFF710
:102E80006DFD2168C8632846BDE87040FDF774BC3D
:102E9000EC04002070B5A020FFF760FD4FF08046E5
:102EA000F16B214C88421CD91420FFF757FD716B40
:102EB000884216D25FF00005C5F15A00C0B2FFF794
:102EC0004DFD2168486305F15A00C0B2FFF746FD89
:102ED0002168C8630420FDF74FFC6D1CEDB24B2D3B
:102EE000EAD3A020FFF73AFDB16B88421BD914202A
:102EF000FFF734FD316C884215D2002505F15A00E8
:102F0000C0B2FFF72BFD21688863C5F15A00C0B23B
:102F1000FFF724FD216808640420FDF72DFC6D1CDB
:102F2000EDB24B2DEAD370BDEC04002070B55A20F1
:102F3000FFF714FD594C216848635A20FFF70EFD36
:102F4000216888635A20FFF709FD2168C8635A2069
:102F5000FFF704FD216808649B20FFF7FFFC4FF09A
:102F60008045696B88427DD91920FFF7F7FCE96B32
:102F7000884277D25FF0000505F15A00C0B2FFF732
:102F8000EDFC21684863C5F15A00C0B2FFF7E6FCCA
:102F90002168C8630420FDF7EFFB6D1CEDB2462DE0
:102FA000EAD34FF47A752846FDF7E6FB5FF000069A
:102FB000C6F1A000C0B2FFF7D1FC2168486306F15A
:102FC0001400C0B2FFF7CAFC2168C8630420FDF7F3
:102FD000D3FB761CF6B2462EEAD3002606F15A0041
:102FE000C0B2FFF7BBFC21688863C6F15A00C0B2CB
:102FF000FFF7B4FC216808640420FDF7BDFB761CD4
:10300000F6B2412EEAD30026C6F15A00C0B2FFF74D
:10301000A5FC2168486306F15A00C0B2FFF79EFC88
:103020002168C8630420FDF7A7FB761CF6B2142EB6
:10303000EAD32846FDF7A0FB8C20FFF78FFC216820
:1030400048632846FDF798FBB220FFF787FC21680C
:1030500048634FF4FA752846FDF78EFB8C20FFF786
:103060007DFC00E019E0216848632846FDF784FBF9
:10307000B220FFF773FC216848632846FDF77CFB0C
:103080008C20FFF76BFC216848632846FDF774FB32
:103090004620FFF763FC2168486370BDEC04002004
:1030A00010B58220FFF75AFC2D4C2168486382201E
:1030B000FFF754FC216888633220FFF74FFC21683A
:1030C000C8633220FFF74AFC21680864C820FDF776
:1030D00053FB3220FFF742FC216848633220FFF7A0
:1030E0003DFC216888638220FFF738FC2168C863B3
:1030F0008220FFF733FC21680864C820FDF73CFB01
:103100008220FFF72BFC216848638220FFF726FC12
:10311000216888633220FFF721FC2168C8633220D0
:10312000FFF71CFC21680864C820FDF725FB32204E
:10313000FFF714FC216848633220FFF70FFC216879
:1031400088638220FFF70AFC2168C8638220FFF7AA
:1031500005FC21680864BDE81040C820FDF70CBBE1
:10316000EC0400200000000000000000000000004F
:10317000000000000000000000000000000000004F
:10318000000000000000000000000000000000003F
:10319000000000000000000000000000000000002F
:1031A000000000000000000000000000000000001F
:1031B000000000000000000000000000000000000F
:1031C00000000000000000000000000000000000FF
:1031D00000000000000000000000000000000000EF
:1031E00000000000000000000000000000000000DF
:1031F00000000000000000000000000000000000CF
:1032000000000000000000000000000000000000BE
:1032100000000000000000000000000000000000AE
:10322000000000000000000000000000000000009E
:10323000000000000000000000000000000000008E
:10324000000000000000000000000000000000007E
:10325000000000000000000000000000000000006E
:10326000000000000000000000000000000000005E
:10327000000000000000000000000000000000004E
:10328000000000000000000000000000000000003E
:1032900000000000000000000000F0F0F0F0F0F08E
:1032A000F0F0F0F0F0F0F0F0F0F0F0F0F0F0F0000E
:1032B000000000000000000000000000000000000E
:1032C00000000000000000000000F0F0F0F0F0F05E
:1032D000F0F0F0F0F0F0F0F0F0F0F0F0F0F00000CE
:1032E00000000000000000000000000000000000DE
:1032F00000000000000000000000000000000000CE
:1033000000000000000000000000000000000000BD
:1033100000000000000000000000FFFFFFFFFFFFB3
:10332000FFFFFFFFFFFFFFFFFFFFFFFFFFFFFF00AC
:10333000000000000000000000000000000000008D
:1033400000000000000000000000FFFFFFFFFFFF83
:10335000FFFFFFFFFFFFFFFFFFFFFFFFFFFF00007B
:10336000000000000000000000000000000000005D
:10337000000000000000000000000000000000004D
:10338000000000000000000000000000000000003D
:1033900000000000000000000000FFFFFFFFFFFF33
:1033A000FFFFFFFFFFFFFFFFFFFFFFFFFFFFFF002C
:1033B000000000000000000000000000000000000D
:1033C00000000000000000000000FFFFFFFFFFFF03
:1033D000FFFFFFFFFFFFFFFFFFFFFFFFFFFF0000FB
:1033E00000000000000000000000000000000000DD
:1033F00000000000000000000000000000000000CD
:1034000000000000000000000000000000000000BC
:10341000000000000000000000007F7F7F7F7F7FB2
:103420007F7F7F7F7F7F7F7F7F7F7F7F7F7F7F002B
:10343000000000000000000000000000000000008C
:10344000000000000000000000007F7F7F7F7F7F82
:103450007F7F7F7F7F7F7F7F7F7F7F7F7F7F00007A
:10346000000000000000000000000000000000005C
:10347000000000000000000000000000000000004C
:10348000000000000000000000000000000000003C
:10349000000000000000000000000000000000002C
:1034A000000000000000000000000000000000001C
:1034B000000000000000000000000000000000000C
:1034C00000000000000000000000000000000000FC
:1034D00000000000000000000000000000000000EC
:1034E00000000000000000000000000000000000DC
:1034F00000000000000000000000000000000000CC
:1035000000000000000000000000000000000000BB
:1035100000000000000000000000000000000000AB
:10352000000000000000000000000000000000009B
:10353000000000000000000000000000000000008B
:10354000000000000000000000000000000000007B
:10355000000000000000000000000000000000006B
:1035600000000000804000006431000800000000FE
:10357000000000000000000000000000000000004B
:10358000000000000000000000000000000000003B
:10359000000000000000000000000000000000002B
:1035A000000000000000000000000000000000001B
:1035B000000000000000000000000000000000000B
:1035C00000000000000000000000000000000000FB
:1035D00000000000000000000000000000000000EB
:1035E00000000000000000000000000000000000DB
:1035F00000000000000000000000000000000000CB
:1036000000000000000000000000000000000000BA
:1036100000000000000000000000000000000000AA
:10362000000000000000000000000000000000009A
:10363000000000000000000000000000000000008A
:10364000000000000000000000000000000000007A
:10365000000000000000000000000000000000006A
:10366000000000000000000000000000000000005A
:10367000000000000000F8FCFCFCFCFCFCFCFCFC76
:10368000FCFCFCFCFCFCFCFCFCF800000000000066
:10369000000000000000000000000000000000002A
:1036A0000000000000F8FCFCFCFCFCFCFCFCFCFC4A
:1036B000FCFCFCFCFCFCFCFCF80000000000000032
:1036C00000000000000000000000000000000000FA
:1036D00000000000000000000000000000000000EA
:1036E00000000000000000000000000000000000DA
:1036F000000000000000FFFFFFFFFFFFFFFFFFFFD4
:10370000FFFFFFFFFFFFFFFFFFFF000000000000C3
:1037100000000000000000000000000000000000A9
:103720000000000000FFFFFFFFFFFFFFFFFFFFFFA4
:10373000FFFFFFFFFFFFFFFFFF0000000000000092
:103740000000000000000000000000000000000079
:103750000000000000000000000000000000000069
:103760000000000000000000000000000000000059
:10377000000000000000FFFFFFFFFFFFFFFFFFFF53
:10378000FFFFFFFFFFFFFFFFFFFF00000000000043
:103790000000000000000000000000000000000029
:1037A0000000000000FFFFFFFFFFFFFFFFFFFFFF24
:1037B000FFFFFFFFFFFFFFFFFF0000000000000012
:1037C00000000000000000000000000000000000F9
:1037D00000000000000000000000000000000000E9
:1037E00000000000000000000000000000000000D9
:1037F0000000000000003F3F3F3F3F3F3F3F3F3F53
:103800003F3F3F3F3F3F3F3F3F3F00000000000042
:1038100000000000000000000000000000000000A8
:1038200000000000003F3F3F3F3F3F3F3F3F3F3FE3
:103830003F3F3F3F3F3F3F3F3F0000000000000051
:103840000000000000000000000000000000000078
:103850000000000000000000000000000000000068
:103860000000000000000000000000000000000058
:103870000000000000000000000000000000000048
:103880000000000000000000000000000000000038
:103890000000000000000000000000000000000028
:1038A0000000000000000000000000000000000018
:1038B0000000000000000000000000000000000008
:1038C00000000000000000000000000000000000F8
:1038D00000000000000000000000000000000000E8
:1038E00000000000000000000000000000000000D8
:1038F00000000000000000000000000000000000C8
:1039000000000000000000000000000000000000B7
:1039100000000000000000000000000000000000A7
:103920000000000000000000000000000000000097
:103930000000000000000000000000000000000087
:103940000000000000000000000000000000000077
:103950000000000000000000000000000000000067
:103960000000000000000000000000008040000097
:103970006C3500080000000000000000000000009E
:103980000000000000000000000000000000000037
:103990000000000000000000000000000000000027
:1039A0000000000000000000000000000000000017
:1039B0000000000000000000000000000000000007
:1039C00000000000000000000000000000000000F7
:1039D00000000000000000000000000000000000E7
:1039E00000000000000000000000000000000000D7
:1039F00000000000000000000000000000000000C7
:103A000000000000000000000000000000000000B6
:103A100000000000000000000000000000000000A6
:103A20000000000000000000000000000000000096
:103A30000000000000000000000000000000000086
:103A40000000000000000000000000000000000076
:103A50000000000000000000000000000000000066
:103A60000000000000000000000000000000000056
:103A70000000000000000000000000000000000046
:103A80000000000000000000000000000000000036
:103A900000000000000000000080C0F0F0F0F0E046
:103AA0008000000000000000000000000000000096
:103AB0000000000000000000000000000000000006
:103AC000000000000080C0F0F0F0F0E0C000000056
:103AD00000000000000000000000000000000000E6
:103AE00000000000000000000000000000000000D6
:103AF00000000000000000000000000000000000C6
:103B000000000000000000000000000000000000B5
:103B100000000000000000C0FCFFFFFFFFFFFFFFF0
:103B2000FFFEE000000000000000000000000000B8
:103B30000000000000000000000000000000000085
:103B4000000000C0FCFFFFFFFFFFFFFFFFFEF000D3
:103B50000000000000000000000000000000000065
:103B60000000000000000000000000000000000055
:103B70000000000000000000000000000000000045
:103B80000000000000000000000000000000000035
:103B900000000000000000FFFFFFFFFFFFFFFFFF2E
:103BA000FFFFFF0000000000000000000000000018
:103BB0000000000000000000000000000000000005
:103BC000000000FFFFFFFFFFFFFFFFFFFFFFFF0001
:103BD00000000000000000000000000000000000E5
:103BE00000000000000000000000000000000000D5
:103BF00000000000000000000000000000000000C5
:103C000000000000000000000000000000000000B4
:103C100000000000000000033FFFFFFFFFFFFFFF69
:103C2000FF7F07000000000000000000000000000F
:103C30000000000000000000000000000000000084
:103C4000000000033FFFFFFFFFFFFFFFFF7F0F00AC
:103C50000000000000000000000000000000000064
:103C60000000000000000000000000000000000054
:103C70000000000000000000000000000000000044
:103C80000000000000000000000000000000000034
:103C900000000000000000000001070F0F0F0F07D9
:103CA0000100000000000000000000000000000013
:103CB0000000000000000000000000000000000004
:103CC00000000000000103070F0F0F0703000000B2
:103CD00000000000000000000000000000000000E4
:103CE00000000000000000000000000000000000D4
:103CF00000000000000000000000000000000000C4
:103D000000000000000000000000000000000000B3
:103D100000000000000000000000000000000000A3
:103D20000000000000000000000000000000000093
:103D30000000000000000000000000000000000083
:103D40000000000000000000000000000000000073
:103D50000000000000000000000000000000000063
:103D60000000000000000000000000000000000053
:103D700000000000804000007439000801020203C6
:103D80000405060708090A0B0C0D0E0F10100000A1
:103D900000000000000001020304060708090000FB
:103DA0000000010203040000C83D000800000020DC
:103DB000140000003E290008DC3D0008140000202B
:103DC000F40900004E290008000000000100000076
:0C3DD000100000000000000000127A004B
:04000005080000ED02
:00000001FF
